:020000040800F2
:1000000000500020310C0008B90B0008BB0B0008A1
:10001000BD0B0008BF0B0008C10B0008000000006A
:10002000000000000000000000000000C30B0008FA
:10003000C50B000800000000C70B0008C90B000832
:10004000790C0008790C0008790C0008790C00087C
:10005000790C0008790C0008790C0008790C00086C
:10006000790C0008790C0008790C0008790C00085C
:10007000790C0008790C0008790C0008790C00084C
:10008000790C0008790C0008790C0008790C00083C
:10009000790C0008790C0008790C0008790C00082C
:1000A000790C0008790C0008790C0008790C00081C
:1000B000790C0008790C0008790C0008790C00080C
:1000C000790C0008790C0008790C0008790C0008FC
:1000D000790C0008790C0008790C0008790C0008EC
:1000E000CD0B0008790C0008790C00080000000016
:1000F0000000000000000000000000000000000000
:0C01000000000000000000005FF808F1A3
:10010C0010B5054C237833B9044B13B10448AFF345
:10011C0000800123237010BD0400002000000000AB
:10012C00D40C000808B5034B1BB103490348AFF3CB
:10013C00008008BD0000000008000020D40C00085E
:10014C0003460279002A56D00268002A60D0417911
:10015C0001291BD019B1022923D0012009E02E4915
:10016C00486820EA02024A601A68086802430A607A
:10017C0000209A79002A4DD010B4022A26D0032AE6
:10018C002FD0012A17D0012010BC704722490868D3
:10019C0020EA02020A601A68486802434A6000209A
:1001AC00E7E71D49086802430A601A684868024379
:1001BC004A600020DDE71C68174AD16821EA040177
:1001CC00D1601B6891680B439360DDE71C68124A91
:1001DC00916821EA040191601B68D1680B43D360DC
:1001EC00D2E719680C4A9468214391601B68D16866
:1001FC000B43D360C8E70068074A116821EA000185
:10020C0011601968536823EA01035360002070479A
:10021C0000207047704700BF00040140F0B50D6826
:10022C00C5F30F2595FAA5F2B2FA82F235E0A2F1E8
:10023C0008044FF00113A34043F0806339E0C45924
:10024C0093FAA3F6B6FA86F6B6004FF0030C0CFA46
:10025C0006F624EA060C93FAA3F6B6FA86F6B6006E
:10026C008C6804FA06F646EA0C06C651CC6893FA7A
:10027C00A3FCBCFA8CFC4FEA8C0C4FF0040E0EFA6B
:10028C000CFC26EA0C0693FAA3F3B3FA83F39B0057
:10029C0004FA03F33343C351013235FA02F335D078
:1002AC00012393402B42F7D0072AC0D840F2011308
:1002BC0093404E681F0EC45993FAA3FCBCFA8CFCF5
:1002CC004FEA8C0C4FF00F0E0EFA0CFC24EA0C04C7
:1002DC0093FAA3FCBCFA8CFC4FEA8C0C06FA0CF6D5
:1002EC003443C451C6681C0A26EA040C94FAA4F4DC
:1002FC00B4FA84F40E6906FA04F44CEA0404C460FB
:10030C004C68012C9BD0092CC6D198E70020F0BD7D
:10031C00034B5B68C3F30313024AD35CD8407047AA
:10032C0000100240EC0C0008034B5B68C3F3022383
:10033C00024AD35CD840704700100240FC0C000805
:10034C00034B5B68C3F3C223024AD35CD8407047AB
:10035C0000100240FC0C00080B4B5B6803F480336C
:10036C007BB1094B5868C0F340400130074BB3FBDD
:10037C00F0F0054B5B68C3F38343023300FB03F0DF
:10038C0070470348F5E700BF0010024000127A00E6
:10039C0000093D0008B5054B5B6803F00C03082B06
:1003AC0002D1FFF7D9FF08BD0148FCE7001002405D
:1003BC0000127A0010B50446FFF7ECFF2060FFF73F
:1003CC00A7FF6060FFF7B0FFA0606068FFF7B8FFA1
:1003DC00E06010BD30B4036A23F001030362036ACA
:1003EC004468826922F073020D682A4323F00203E9
:1003FC000D692B4323F001034D682B430F4DA8428D
:10040C0007D044608261CA6842630362002030BC3A
:10041C00704723F008034D6943EA850323F0040376
:10042C008D6843EA850324F480748D692C4324F48D
:10043C000074CD6944EA4504E3E700BF002C014099
:10044C0030B4036A23F010030362036A44688269C0
:10045C0022F4E6420D6842EA052223F020030D69DE
:10046C0043EA051323F010034D6843EA0513104DBE
:10047C00A84207D044608261CA688263036200208C
:10048C0030BC704723F080034D6943EA851323F099
:10049C0040038D6843EA851324F480648D6944EA33
:1004AC00850424F40064CD6944EAC504E2E700BF86
:1004BC00002C014030B4036A23F480730362036A96
:1004CC004468C26922F073020D682A4323F4007356
:1004DC000D6943EA052323F480734D6843EA052331
:1004EC000F4DA84207D04460C261CA68C263036260
:1004FC00002030BC704723F400634D6943EA852328
:10050C0023F480638D6843EA852324F480548D6939
:10051C0044EA051424F40054CD6944EA4514E2E796
:10052C00002C014030B4036A23F480530362036A45
:10053C004468C26922F4E6420D6842EA052223F4BB
:10054C0000530D6943EA053323F480534D6843EAA5
:10055C000533084DA84207D04460C261CA680264E2
:10056C000362002030BC704724F480448D6944EA57
:10057C008514F1E7002C014003681A4A90420AD016
:10058C00B0F1804F07D0A2F59432904203D002F51F
:10059C008062904203D123F070034A681343114ADE
:1005AC0090420AD0B0F1804F07D0A2F5943290421D
:1005BC0003D002F58062904203D123F44073CA68E1
:1005CC00134303608B68C3620B888362054B9842AC
:1005DC0005D0436943F001034361002070470B7C55
:1005EC000363F6E7002C014008B5102910D009D997
:1005FC00B1F5807F10D0B1F5805F11D11146FFF7B6
:10060C0091FF04E001290BD11146FFF7E3FE08BD71
:10061C001146FFF715FFFAE71146FFF74BFFF6E718
:10062C000120F4E7C36813F4005F01D00120704788
:10063C0030B585B00D460446C36823F4B05323F09F
:10064C000C034A68C9680A4329690A431343C36007
:10065C00AB68026922F44052134303616B6942692F
:10066C0022F44072134343616846FFF7A3FE1C4B10
:10067C009C4208D01B4B9C422AD01B4B9C4229D03D
:10068C00012005B030BD039B33B32A6832B303EBB2
:10069C00830303EB83039200B3FBF2F3134DA5FB2F
:1006AC0003204009020191B2642202FB10321301B3
:1006BC003233A5FB0323C3F34F1303F0F0020A44B8
:1006CC0092B203F00F0313449BB2A3600020D8E74F
:1006DC00029BD9E7029BD7E70120D2E70120D0E7A4
:1006EC000038014000440040004800401F85EB5199
:1006FC00054BA3FB003080090138044B58600022E5
:10070C009A6005221A607047D34D621010E000E029
:10071C00014B1860704700BF00000020026813688E
:10072C0043F0010313600268136A43F00103136280
:10073C000123037170470268136823F001031360EF
:10074C000268136A23F001031362002303717047DC
:10075C0070B504460D461646FFF7FEFDB0FBF6F0ED
:10076C00256000232371A660E3602061A8622268E3
:10077C00936943F0080393612268136843F0800384
:10078C0013602268536943F0010353612268136AB2
:10079C0023F00203136270BD0368DA6AC16001FBC7
:1007AC0002F1034AA2FB012149095963704700BFBA
:1007BC001F85EB51F0B58DB000240B940594069475
:1007CC00079408940994364B9A6942F010029A6186
:1007DC009A6902F010020492049A9A6942F020027B
:1007EC009A619A6902F020020392039A9A6942F084
:1007FC0004029A619A6902F004020292029A9A69BE
:10080C0042F008029A619B6903F008030193019B73
:10081C00244D20236B6124494A6922F0F002F02315
:10082C0093FAA3F3B3FA83F3022606FA03F3134302
:10083C004B614FF400530A9301278DF82C708DF8FF
:10084C002E700AA8FFF77CFC18484268184B93FAE4
:10085C00A3F1B1FA81F1B1404FF00F0C0CFA01F198
:10086C0022EA010293FAA3F3B3FA83F3B34004210F
:10087C0001FA03F31343436042F2200305930697F6
:10088C000796089405A92846FFF7C8FC094BDB68B6
:10089C00094B83F828434FF480725A600DB0F0BDB9
:1008AC00001002400008014000000140001001400F
:1008BC002000200400ED00E000E100E070B594B0F1
:1008CC000024CDF83E40CDF84240CDF84640CDF85E
:1008DC004A40ADF84E402022214607A800F0ECF922
:1008EC0002940394049405940694294EF36943F0FE
:1008FC000103F361F36903F001030193019B1423DA
:10090C00ADF83C304FF47A7311930FA94FF080403F
:10091C00FFF732FE4FF080452B6823F080032B60ED
:10092C00AB6823F4804323F00703AB60AB6943F05F
:10093C000803AB6160230793089409940A940B9401
:10094C0007AA01212846FFF74FFEAB6923F00403E9
:10095C00AB616B6823F070036B60AB6823F08003B2
:10096C00AB60B36943F00403B361B36903F00403F0
:10097C000093009B40F2011302930923039302237B
:10098C000493059402A90348FFF748FC14B070BD0A
:10099C00001002400008014070B58EB0002407948E
:1009AC00089409940A940B940C940D940594069451
:1009BC00214BDA6942F40032DA61DA6902F400326E
:1009CC000192019A9A6942F004029A619B6903F0C0
:1009DC0004030093009B40F2044302930926039600
:1009EC0002230493154D02A92846FFF717FC40F685
:1009FC0008030293039602A92846FFF70FFC4FF455
:100A0C00E1330793089409940A940C230B930C94E8
:100A1C000D940B4C07A92046FFF704FE236923F421
:100A2C0090432361636923F02A036361E36843F411
:100A3C000053E3600EB070BD00100240000801408E
:100A4C000044004010B5284A136823F0070343F014
:100A5C00020313601368A2F58052136823F0F803A5
:100A6C0043F080031360136843F0010313601F4BC2
:100A7C001B6813F0020FFAD01C4A536823F47C1342
:100A8C0043F460135360136843F080731360174B87
:100A9C001B6813F0007FFAD0144B5A6822F0F00256
:100AAC005A605A6822F4E06242F480625A605A68D2
:100ABC0022F460525A605A6822F0030242F0020299
:100ACC005A600A4B5B6803F00C03082BF9D1084CF5
:100ADC002046FFF70DFE074A136843F0040313602A
:100AEC002046FFF715FE10BD00200240001002400A
:100AFC000090D00310E000E000B589B0264B9A6955
:100B0C0042F001029A619A6902F001020292029A81
:100B1C00DA6942F08052DA61DB6903F080530193A9
:100B2C00019B1E49CA6822F4E0621204120C1C4B91
:100B3C001343CB601B4B5A6822F0E0625A605A6830
:100B4C0042F000725A60FFF77DFFFFF733FEFFF7AC
:100B5C00B5FEFFF721FF4FF47A424FF0804103A816
:100B6C00FFF7F6FD0A2103A8FFF716FE03A8FFF70F
:100B7C00D5FD002301E000BF01330B4A9342FADD9F
:100B8C0003A8FFF7D8FD5A2103A8FFF705FE03A819
:100B9C00FFF7C4FDFEE700BF0010024000ED00E0CF
:100BAC000003FA0500000140FF23F4007047FEE744
:100BBC00FEE7FEE7FEE7704770477047704700009E
:100BCC00044B5B6913F4005F03D0024B4FF40052EB
:100BDC005A617047000401400F4B1A6842F0010241
:100BEC001A6059680D4A0A405A601A6822F08472D9
:100BFC0022F480321A601A6822F480221A605A6831
:100C0C0022F4FE025A604FF41F029A60044B4FF01C
:100C1C0000629A60704700BF001002400000FFF8AD
:100C2C0000ED00E0002103E00B4B5B584350043116
:100C3C000A480B4B42189A42F6D30A4A02E00023A8
:100C4C0042F8043B084B9A42F9D3FFF7C5FF00F07A
:100C5C000FF8FFF751FF70470C0D00080000002043
:100C6C00040000200400002020000020FEE700000B
:100C7C0070B500250C4E0D4CA41BA410A54209D137
:100C8C0000F022F800250A4E0A4CA41BA410A54221
:100C9C0005D170BD56F8253098470135EEE756F86A
:100CAC00253098470135F2E7040D0008040D0008C3
:100CBC00040D0008080D000803460244934200D1BD
:100CCC00704703F8011BF9E7F8B500BFF8BC08BC86
:100CDC009E467047F8B500BFF8BC08BC9E467047EE
:100CEC0000000000000000000102030406070809D0
:080CFC000000000001020304E6
:040D040031010008B1
:040D08000D010008D1
:040D0C000024F400CB
:0400000508000C31B2
:00000001FF
